:020000040800F2
:10000000006000205D140008A5140008A514000875
:10001000A5140008A5140008A5140008000000009D
:10002000000000000000000000000000A51400080F
:10003000A514000800000000A5140008991000088D
:1000400000000000000000000000000000000000B0
:1000500000000000000000000000000000000000A0
:100060000000000000000000000000000000000090
:100070000000000000000000000000000000000080
:100080000000000000000000000000000000000070
:100090000000000000000000000000000000000060
:1000A0000000000000000000000000000000000050
:1000B0000000000000000000000000000000000040
:1000C0000000000000000000000000000000000030
:1000D0000000000000000000000000000000000020
:1000E0000000000000000000000000000000000010
:1000F0000000000000000000000000000000000000
:1001000000000000000000000000000000000000EF
:1001100000000000000000000000000000000000DF
:1001200000000000000000000000000000000000CF
:1001300000000000000000000000000000000000BF
:1001400000000000000000000000000000000000AF
:10015000000000000000000000000000000000009F
:10016000000000000000000000000000000000008F
:10017000000000000000000000000000000000007F
:08018000000000000000000077
:10018800044B05481B1A062B02D9044B03B1184728
:10019800704700BF8F0800208C0800200000000076
:1001A80005490648091A891001EBD171491002D096
:1001B800034B03B1184770478C0800208C080020B7
:1001C8000000000010B5064C237843B9FFF7D8FFAC
:1001D800044B13B10448AFF300800123237010BD12
:1001E8008C08002000000000485E000808B5084B95
:1001F8001BB108490848AFF300800848036813B9E1
:10020800BDE80840CCE7064B002BF9D09847F7E744
:100218000000000090080020485E00088C080020BC
:1002280000000000844641EA000313F0030349D1AB
:10023800403A23D30B6803604B6843608B68836044
:10024800CB68C3600B6903614B6943618B69836148
:10025800CB69C3610B6A03624B6A43628B6A836230
:10026800CB6AC3620B6B03634B6B43638B6B836318
:10027800CB6BC36340304031403ADBD230320BD3D2
:100288000B6803604B6843608B688360CB68C3600E
:1002980010301031103AF3D20C3205D351F8043B28
:1002A80040F8043B043AF9D2043208D0D2071CBF04
:1002B80011F8013B00F8013B01D30B88038060462D
:1002C800704700BF082A13D38B07B1D010F003037F
:1002D800AED0C3F10403D21ADB071CBF11F8013BEF
:1002E80000F8013BA4D331F8023B20F8023B9FE71A
:1002F800043AD9D3013A11F8013B00F8013BF9D28D
:100308000B7803704B7843708B7883706046704726
:1003180081F0004102E000BF83F0004330B54FEAAE
:1003280041044FEA430594EA050F08BF90EA020F1B
:100338001FBF54EA000C55EA020C7FEA645C7FEAAE
:10034800655C00F0E2804FEA5454D4EB5555B8BFD1
:100358006D420CDD2C4480EA020281EA030382EA42
:10036800000083EA010180EA020281EA0303362DD4
:1003780088BF30BD11F0004F4FEA01314FF4801CA7
:100388004CEA113102D0404261EB410113F0004FB9
:100398004FEA03334CEA133302D0524263EB430370
:1003A80094EA050F00F0A780A4F10104D5F1200E0E
:1003B8000DDB02FA0EFC22FA05F2801841F1000169
:1003C80003FA0EF2801843FA05F359410EE0A5F13D
:1003D80020050EF1200E012A03FA0EFC28BF4CF06E
:1003E800020C43FA05F3C01851EBE37101F0004524
:1003F80007D54FF0000EDCF1000C7EEB00006EEB31
:100408000101B1F5801F1BD3B1F5001F0CD34908BA
:100418005FEA30004FEA3C0C04F101044FEA445211
:1004280012F5800F80F09A80BCF1004F08BF5FEA98
:10043800500C50F1000041EB045141EA050130BD78
:100448005FEA4C0C404141EB010111F4801FA4F11B
:100458000104E9D191F0000F04BF01460020B1FA70
:1004680081F308BF2033A3F10B03B3F120020CDAA8
:100478000C3208DD02F1140CC2F10C0201FA0CF086
:1004880021FA02F10CE002F11402D8BFC2F1200CEB
:1004980001FA02F120FA0CFCDCBF41EA0C019040A1
:1004A800E41AA2BF01EB0451294330BD6FEA0404EA
:1004B8001F3C1CDA0C340EDC04F11404C4F12002D5
:1004C80020FA04F001FA02F340EA030021FA04F3E7
:1004D80045EA030130BDC4F10C04C4F1200220FA3E
:1004E80002F001FA04F340EA0300294630BD21FA7C
:1004F80004F0294630BD94F0000F83F4801306BF42
:1005080081F480110134013D4EE77FEA645C18BF35
:100518007FEA655C29D094EA050F08BF90EA020FCC
:1005280005D054EA000C04BF1946104630BD91EAC4
:10053800030F1EBF0021002030BD5FEA545C05D1C7
:100548004000494128BF41F0004130BD14F5800406
:100558003CBF01F5801130BD01F0004545F0FE417A
:1005680041F470014FF0000030BD7FEA645C1ABFAF
:10057800194610467FEA655C1CBF0B46024650EAE6
:10058800013406BF52EA033591EA030F41F4002112
:1005980030BD00BF90F0000F04BF0021704730B598
:1005A8004FF4806404F132044FF000054FF000016D
:1005B80050E700BF90F0000F04BF0021704730B52E
:1005C8004FF4806404F1320410F0004548BF404203
:1005D8004FF000013EE700BF42004FEAE2014FEA58
:1005E80031014FEA02701FBF12F07F4393F07F4F33
:1005F80081F06051704792F0000F14BF93F07F4F65
:10060800704730B54FF4607401F0004521F00041A7
:1006180020E700BF50EA010208BF704730B54FF02D
:1006280000050AE050EA010208BF704730B511F032
:10063800004502D5404261EB41014FF4806404F16A
:1006480032045FEA915C3FF4DCAE4FF003025FEAEC
:10065800DC0C18BF03325FEADC0C18BF033202EB74
:10066800DC02C2F1200300FA03FC20FA02F001FACE
:1006780003FE40EA0E0021FA02F11444C1E600BF6D
:1006880070B54FF0FF0C4CF4E06C1CEA11541DBF20
:100698001CEA135594EA0C0F95EA0C0F00F0DEF8EB
:1006A8002C4481EA030621EA4C5123EA4C5350EAD0
:1006B800013518BF52EA033541F4801143F4801321
:1006C80038D0A0FB02CE4FF00005E1FB02E506F0B2
:1006D8000042E0FB03E54FF00006E1FB03569CF007
:1006E800000F18BF4EF0010EA4F1FF04B6F5007F0D
:1006F80064F5407404D25FEA4E0E6D4146EB06067F
:1007080042EAC62141EA55514FEAC52040EA5E5007
:100718004FEACE2EB4F1FD0C88BFBCF5E06F1ED8B1
:10072800BEF1004F08BF5FEA500E50F1000041EBE8
:10073800045170BD06F0004646EA010140EA020095
:1007480081EA0301B4EB5C04C2BFD4EB0C0541EAB7
:10075800045170BD41F480114FF0000E013C00F3CC
:10076800AB8014F1360FDEBF002001F0004170BDF0
:10077800C4F10004203C35DA0C341BDC04F1140409
:10078800C4F1200500FA05F320FA04F001FA05F295
:1007980040EA020001F0004221F0004110EBD37062
:1007A80021FA04F642EB06015EEA430E08BF20EA8E
:1007B800D37070BDC4F10C04C4F1200500FA04F331
:1007C80020FA05F001FA04F240EA020001F00041C3
:1007D80010EBD37041F100015EEA430E08BF20EA36
:1007E800D37070BDC4F1200500FA05F24EEA020E7E
:1007F80020FA04F301FA05F243EA020321FA04F0AD
:1008080001F0004121FA04F220EA020000EBD37063
:100818005EEA430E08BF20EAD37070BD94F0000F63
:100828000FD101F00046400041EB010111F4801F97
:1008380008BF013CF7D041EA060195F0000F18BF48
:10084800704703F00046520043EB030313F4801F84
:1008580008BF013DF7D043EA0603704794EA0C0F3E
:100868000CEA135518BF95EA0C0F0CD050EA410654
:1008780018BF52EA4306D1D181EA030101F00041D1
:100888004FF0000070BD50EA410606BF10461946F9
:1008980052EA430619D094EA0C0F02D150EA013605
:1008A80013D195EA0C0F05D152EA03361CBF104646
:1008B80019460AD181EA030101F0004141F0FE41E5
:1008C80041F470014FF0000070BD41F0FE4141F469
:1008D800780170BD70B54FF0FF0C4CF4E06C1CEA69
:1008E80011541DBF1CEA135594EA0C0F95EA0C0F1E
:1008F80000F0A7F8A4EB050481EA030E52EA0335D9
:100908004FEA013100F088804FEA03334FF08055F9
:1009180045EA131343EA12634FEA022245EA111526
:1009280045EA10654FEA00260EF000419D4208BFD7
:10093800964244F1FD0404F5407402D25B084FEA84
:100948003202B61A65EB03055B084FEA32024FF430
:1009580080104FF4002CB6EB020E75EB030E22BF8D
:10096800B61A754640EA0C005B084FEA3202B6EB4D
:10097800020E75EB030E22BFB61A754640EA5C00FC
:100988005B084FEA3202B6EB020E75EB030E22BF8C
:10099800B61A754640EA9C005B084FEA3202B6EB8D
:1009A800020E75EB030E22BFB61A754640EADC004C
:1009B80055EA060E18D04FEA051545EA16754FEAAE
:1009C80006164FEAC30343EA52734FEAC2025FEACC
:1009D8001C1CC0D111F4801F0BD141EA00014FF05B
:1009E80000004FF0004CB6E711F4801F04BF01432C
:1009F8000020B4F1FD0C88BFBCF5E06F3FF6AFAE48
:100A0800B5EB030C04BFB6EB020C5FEA500C50F1D7
:100A1800000041EB045170BD0EF0004E4EEA11315A
:100A280014EB5C04C2BFD4EB0C0541EA045170BD61
:100A380041F480114FF0000E013C90E645EA060EA5
:100A48008DE60CEA135594EA0C0F08BF95EA0C0FD3
:100A58003FF43BAF94EA0C0F0AD150EA01347FF41B
:100A680034AF95EA0C0F7FF425AF104619462CE7F2
:100A780095EA0C0F06D152EA03353FF4FDAE104655
:100A8800194622E750EA410618BF52EA43067FF4A6
:100A9800C5AE50EA41047FF40DAF52EA43057FF436
:100AA800EBAE12E74FF0FF3C06E000BF4FF0010C41
:100AB80002E000BF4FF0010C4DF804CD4FEA410CA5
:100AC8007FEA6C5C4FEA430C18BF7FEA6C5C1BD072
:100AD80001B050EA410C0CBF52EA430C91EA030FF3
:100AE80002BF90EA020F0020704710F1000F91EA50
:100AF800030F58BF994208BF90422CBFD8176FEA1E
:100B0800E37040F0010070474FEA410C7FEA6C5CEB
:100B180002D150EA013C07D14FEA430C7FEA6C5CF2
:100B2800D6D152EA033CD3D05DF8040B704700BF1E
:100B38008446104662468C461946634600E000BF6C
:100B480001B5FFF7B7FF002848BF10F1000F01BD3E
:100B58004DF808EDFFF7F4FF0CBF012000205DF809
:100B680008FB00BF4DF808EDFFF7EAFF34BF01208E
:100B780000205DF808FB00BF4DF808EDFFF7E0FF27
:100B880094BF012000205DF808FB00BF4DF808ED78
:100B9800FFF7CEFF94BF012000205DF808FB00BFDF
:100BA8004DF808EDFFF7C4FF34BF012000205DF8C1
:100BB80008FB00BF4FEA410212F5001215D211D509
:100BC8006FF47873B3EB625212D94FEAC12343F042
:100BD800004343EA505311F0004F23FA02F018BFC4
:100BE800404270474FF00000704750EA013005D18D
:100BF80011F0004008BF6FF0004070474FF0000050
:100C0800704700BF53B94AB9002908BF00281CBF64
:100C18004FF0FF314FF0FF3000F082B9ADF1080C12
:100C28006DE904CE00F006F8DDF804E0DDE9022302
:100C380004B070472DE9F04F8C460C460546099ED6
:100C4800002B4FD18A4217466BD9B2FA82FEBEF109
:100C5800000F0BD0CEF1200520FA05F501FA0EF3AE
:100C680045EA030C02FA0EF700FA0EF5390CBCFB44
:100C7800F1F0BAB201FB10C300FB02F84FEA154CC1
:100C88004CEA0344A04509D9E41900F1FF3380F088
:100C98002881A04540F2258102383C44C8EB040471
:100CA800B4FBF1F301FB134C03FB02F2ACB244EAD0
:100CB8000C418A4209D9C91903F1FF3480F00F8128
:100CC8008A4240F20C81023B39448A1A43EA0040C6
:100CD8000021002E63D022FA0EF2002386E80C00D1
:100CE800BDE8F08F8B4207D9002E56D0002186E848
:100CF80011000846BDE8F08FB3FA83F1002940F0EF
:100D08009380A34202D3824200F2FE80851A64EBEC
:100D180003039C460120002E41D086E82010BDE840
:100D2800F08F12B90127B7FBF2F7B7FA87FEBEF1C9
:100D3800000F36D1E41B4FEA17481FFA87F9012143
:100D4800B4FBF8F308FB134409FB03F24FEA154C14
:100D58004CEA0444A24207D9E41903F1FF3002D255
:100D6800A24200F2D3800346A41AB4FBF8F008FBB1
:100D7800104809FB00F9ACB244EA0842914507D98A
:100D8800D21900F1FF3402D2914500F2BA80204610
:100D9800C9EB020240EA03409BE731463046BDE812
:100DA800F08F07FA0EF7CEF1200C24FA0CF34FEA75
:100DB8001748B3FBF8FA1FFA87F908FB1A3520FA27
:100DC8000CFC04FA0EF40AFB09FB4CEA040C4FEA8B
:100DD8001C4242EA05439B4500FA0EF50AD9DB1985
:100DE8000AF1FF3280F08B809B4540F28880AAF19F
:100DF800020A3B44CBEB0303B3FBF8F008FB1033C8
:100E080000FB09F41FFA8CFC4CEA03439C4207D907
:100E1800DB1900F1FF326ED29C426CD902383B4498
:100E28001C1B40EA0A418BE7C1F1200E8B4022FAD5
:100E38000EFC4CEA030C24FA0EF74FEA1C49B7FBE8
:100E4800F9FA1FFA8CF309FB1A7720FA0EF88C408E
:100E58000AFB03F548EA04044FEA144848EA07473E
:100E6800BD4202FA01F200FA01FB09D917EB0C079F
:100E78000AF1FF3041D2BD423FD9AAF1020A6744C4
:100E88007F1BB7FBF9F509FB157705FB03F3A4B244
:100E980044EA0747BB4208D917EB0C0705F1FF30B6
:100EA80027D2BB4225D9023D674445EA0A40A0FB48
:100EB8000289FF1A4F4545464C4614D329D066B3DC
:100EC800BBEB050367EB040707FA0EFECB40CF40E8
:100ED8004EEA030386E888000021BDE8F08F234628
:100EE800F3E61846DAE6B8EB020569EB0C040138BC
:100EF800E5E70546D9E7104692E78246C0E79246FD
:100F080078E702383A4443E7084604E7023B3C44A2
:100F18002AE7C345E7D33C46D1E73146BDE8F08F21
:100F2800704700BF80B584B000AF0121042000F0F5
:100F380017FE3B1D184600F0E7FE00237B810023C7
:100F4800FB804FF6FF733B811723BB803B1D19467F
:100F5800054800F05DFE0121034800F0EFFE00BFE8
:100F68001037BD4680BD00BF0008004080B483B084
:100F780000AF03463960FB7197F90730002B0BDA95
:100F88000D49FB7903F00F03043B3A68D2B2120112
:100F9800D2B20B441A7609E0084997F907303A6843
:100FA800D2B21201D2B20B4483F8002300BF0C372F
:100FB800BD4680BC704700BF00ED00E000E100E0E6
:100FC80080B582B000AF78607B68B3F1807F01D3D1
:100FD800012311E00A4A7B6823F07F43013B5360F9
:100FE8000F214FF0FF30FFF7C1FF054B00229A6039
:100FF800034B07221A60002318460837BD4680BDF8
:1010080010E000E080B5A2B000AF00F075F845F63A
:10101800C050FFF7D5FFFFF785FF00F097F90121D2
:10102800102000F07FFD4FF44073A7F880301023A4
:1010380087F88330022387F8823007F18003194646
:10104800104800F0C3FA4FF400710E4800F07AFB24
:101058000023A7F886300C4B1B8840F2F512934208
:10106800F9D1B7F886305A1CA7F886201A463B46AD
:101078000649184601F050F83B46184600F0C0F9FA
:10108800E9E700BF00100140A8080020605E0008E2
:1010980080B400AF164B1B8801339AB2144B1A80E8
:1010A800134B1B88B3F57A7F02D1114B00221A80AB
:1010B8000F4B1B88002B03D10E4B4FF400721A61A3
:1010C8000B4B1B88322B03D10A4B4FF400725A6129
:1010D800074B1B88B3F5FA7F05D1064A054BDB6839
:1010E80083F48073D36000BFBD4680BC704700BFE7
:1010F800A80800200010014080B582B000AF00F0C1
:101108002FFB4FF4803000F05DFB00F089FB0346B5
:10111800FB71FB79012B28D1002000F023FA102065
:1011280000F03CFA002000F0FBFB002000F030FC4F
:101138004FF4806000F010FC4FF480214FF48030B1
:1011480000F096FB012000F0B1FB00BF392000F051
:1011580025FD0346002BF9D0022000F0B7FB00BFA5
:1011680000F0D0FB0346082BFAD100BF0837BD4674
:1011780080BD00BF80B584B000AF7860114B1B689C
:10118800002B02D10F4B104A1A600E4B1B68FB60F4
:101198000C4B1A687B6813446A46934207D900F0DF
:1011A8003FFF02460C2313604FF0FF3306E0054B68
:1011B8001A687B681344034A1360FB6818461037A3
:1011C800BD4680BDB0080020F008002080B500AF03
:1011D800174A174B1B6843F0010313601449144B5B
:1011E8005A68144B13404B60114A114B1B6823F08B
:1011F800847323F4803313600D4A0D4B1B6823F46A
:10120800802313600A4A0A4B5B6823F4FE03536089
:10121800074B4FF41F029A60054B0022DA6200F078
:101228000DF8054B4FF000629A6000BF80BD00BF0B
:10123800001002400000FFF800ED00E080B500AFAC
:1012480000F002F800BF80BD80B483B000AF002377
:101258007B6000233B60304A2F4B1B6843F480338C
:1012680013602D4B1B6803F400333B607B6801332C
:101278007B603B68002B03D17B68B3F5A06FF0D18E
:10128800254B1B6803F40033002B02D001233B607D
:1012980001E000233B603B68012B37D11E4A1E4BFF
:1012A8005B6853601C4A1C4B5B6853601A4A1A4BB4
:1012B8005B685360184A184B5B6823F47C135360CF
:1012C800154A154B5B6843F498135360124A124B46
:1012D8001B6843F08073136000BF0F4B1B6803F05B
:1012E8000073002BF9D00C4A0B4B5B6823F0030307
:1012F8005360094A084B5B6843F00203536000BF20
:10130800054B5B6803F00C03082BF9D100BF0C37C1
:10131800BD4680BC704700BF0010024080B483B057
:1013280000AF0346FB71084997F907305B09FA7962
:1013380002F01F02012000FA02F241F8232000BF48
:101348000C37BD4680BC704700E100E080B586B030
:1013580000AF0121042000F0E5FB01214FF480409B
:1013680000F0E0FB4FF40073BB821823FB750123E8
:10137800BB7507F1140319461F4800F027F94FF40D
:101388008063BB820423FB750123BB7507F114033B
:101398001946194800F01AF94FF461437B6000239D
:1013A8003B820C23FB810023BB8100237B8100232C
:1013B8003B813B1D1946114800F0E0FC25233B709A
:1013C80000237B700123BB700123FB703B4618464A
:1013D80000F066F82520FFF7A1FF012240F2255111
:1013E800064800F0A7FD0121044800F083FD00BF76
:1013F8001837BD4680BD00BF0008014000380140D5
:1014080080B584B000AF7860786800F0ABFE034622
:10141800BB810023FB8113E000BF80210C4800F052
:10142800E3FD0346002BF8D0FB897A6813441B7848
:101438009BB21946064800F0C5FDFB890133FB81C4
:10144800FA89BB899A42E7D300BF1037BD4680BDF1
:1014580000380140002103E00B4B5B584350043136
:101468000A480B4B42189A42F6D30A4A02E0002374
:1014780013600432084B9A42F9D3FFF7A7FE00F035
:10148800D5FDFFF7BFFDFEE724600008000000203F
:101498008C0800208C080020EC080020FEE70000E3
:1014A80080B487B000AF786000237B6100233B6184
:1014B8000F23FB607B68DB78002B3AD0274BDB6877
:1014C800DB4303F4E0631B0A7B617B69C3F104031C
:1014D8003B61FA687B6922FA03F3FB607B685B78FF
:1014E8001A463B6902FA03F37B617B689B781A46CC
:1014F800FB6813407A6913437B617B691B017B613D
:10150800174A7B681B787969C9B213440A4683F87D
:101518000023134A7B681B785B09DBB218467B689B
:101528001B7803F01F03012101FA03F342F820306E
:101538000FE00B497B681B785B09DBB218467B68B8
:101548001B7803F01F0301229A4000F1200341F8A1
:10155800232000BF1C37BD4680BC704700ED00E06B
:1015680000E100E080B485B000AF78600023FB6044
:10157800094B1B68FB60FB6803F03803FB60FA68E3
:101588007B681343FB60044AFB68136000BF143791
:10159800BD4680BC704700BF0020024080B483B0C5
:1015A80000AF7860084A084B1B6823F010031360EB
:1015B8000549054B1A687B6813430B6000BF0C375D
:1015C800BD4680BC704700BF0020024080B489B08F
:1015D80000AF786039600023FB6100233B61002382
:1015E800BB610023FB6000237B610023BB603B6879
:1015F800DB7803F00F03FB613B68DB7803F0100333
:10160800002B05D03B689B781A46FB691343FB61A6
:101618003B681B88DBB2002B44D07B681B687B616E
:101628000023BB6138E00122BB6902FA03F3FB60C7
:101638003B681B881A46FB6813403B613A69FB68A4
:101648009A4226D1BB699B00FB600F22FB6802FA15
:1016580003F3BB60BB68DB437A6913407B61FA69BB
:10166800FB6802FA03F37A6913437B613B68DB7812
:10167800282B05D10122BB699A407B685A6108E092
:101688003B68DB78482B04D10122BB699A407B6810
:101698001A61BB690133BB61BB69072BC3D97B687E
:1016A8007A691A603B681B88FF2B46D97B685B68A0
:1016B8007B610023BB613AE0BB690833012202FA6F
:1016C80003F3FB603B681B881A46FB6813403B61C9
:1016D8003A69FB689A4227D1BB699B00FB600F22DD
:1016E800FB6802FA03F3BB60BB68DB437A6913400B
:1016F8007B61FA69FB6802FA03F37A6913437B6139
:101708003B68DB78282B05D1BB69083301229A4056
:101718007B685A613B68DB78482B05D1BB69083385
:1017280001229A407B681A61BB690133BB61BB69BE
:10173800072BC1D97B687A695A6000BF2437BD4638
:1017480080BC704780B483B000AF78600B467B8064
:101758007A887B681A6100BF0C37BD4680BC704729
:1017680080B400AF154A154B1B6843F001031360A2
:101778001249124B5A68124B13404B600F4A0F4BD9
:101788001B6823F0847323F4803313600B4A0B4BDC
:101798001B6823F480231360084A084B5B6823F412
:1017A800FE035360054B4FF41F029A60034B00225F
:1017B800DA6200BFBD4680BC704700BF001002401F
:1017C8000000FFF880B483B000AF7860134A134B71
:1017D8001B6823F480331360104A104B1B6823F4F2
:1017E800802313607B68B3F5803F03D0B3F5802F67
:1017F80007D00DE0094A094B1B6843F48033136096
:1018080006E0064A054B1B6843F4A023136000BF9B
:1018180000BF0C37BD4680BC704700BF00100240B7
:1018280080B582B000AF00233B600023FB7100232A
:10183800BB71312000F0B2F90346BB713B6801333C
:101848003B603B68B3F5A06F02D0BB79002BF0D0AA
:10185800312000F0A3F90346002B02D00123FB71CD
:1018680001E00023FB71FB7918460837BD4680BDAF
:1018780080B485B000AF786039600023FB600A4B04
:101888005B68FB60FB6823F47413FB607A683B6851
:101898001343FA681343FB60034AFB68536000BFB5
:1018A8001437BD4680BC70470010024080B483B036
:1018B80000AF0346FB71044AFB79136000BF0C3785
:1018C800BD4680BC704700BF6000424280B485B00E
:1018D80000AF78600023FB60094B5B68FB60FB6826
:1018E80023F00303FB60FA687B681343FB60044A38
:1018F800FB68536000BF1437BD4680BC704700BF0B
:101908000010024080B400AF044B5B68DBB203F008
:101918000C03DBB21846BD4680BC7047001002407D
:1019280080B485B000AF78600023FB60094B5B682A
:10193800FB60FB6823F0F003FB60FA687B681343E5
:10194800FB60044AFB68536000BF1437BD4680BC87
:10195800704700BF0010024080B485B000AF7860C7
:101968000023FB60094B5B68FB60FB6823F4E063C2
:10197800FB60FA687B681343FB60044AFB685360AA
:1019880000BF1437BD4680BC704700BF001002403E
:1019980080B485B000AF78600023FB60094B5B68BA
:1019A800FB60FB6823F46053FB607B68DB00FA682C
:1019B8001343FB60034AFB68536000BF1437BD46FE
:1019C80080BC70470010024080B489B000AF7860D6
:1019D8000023FB610023BB6100237B6100233B6183
:1019E8000023FB604A4B5B6803F00C03FB61FB6957
:1019F800042B07D0082B09D0002B2FD17B68454A30
:101A08001A602FE07B68434A1A602BE0404B5B6802
:101A180003F47013BB613E4B5B6803F480337B6156
:101A2800BB699B0C0233BB617B69002B06D1BB6988
:101A3800394A02FB03F27B681A6013E0344BDB6A15
:101A480003F00F030133FB60324AFB68B2FBF3F388
:101A5800BA6902FB03F27B681A6003E07B682D4ACF
:101A68001A6000BF2A4B5B6803F0F003FB61FB6957
:101A78001B09FB61294AFB6913441B78DBB23B61F4
:101A88007B681A683B69DA407B685A60204B5B6860
:101A980003F4E063FB61FB691B0AFB611F4AFB69F6
:101AA80013441B78DBB23B617B685A683B69DA40B8
:101AB8007B689A60164B5B6803F46053FB61FB69B3
:101AC800DB0AFB61154AFB6913441B78DBB23B61F7
:101AD8007B685A683B69DA407B68DA600C4B5B6864
:101AE80003F44043FB61FB699B0BFB610C4AFB69F8
:101AF80013441B78DBB23B617B68DA683B69B2FB55
:101B0800F3F27B681A6100BF2437BD4680BC70477A
:101B18000010024000127A0000093D000000002079
:101B28001000002080B483B000AF78600B46FB70D3
:101B3800FB78002B06D00949084B9A697B68134348
:101B48008B6106E00549054B9A697B68DB431340C6
:101B58008B6100BF0C37BD4680BC70470010024047
:101B680080B483B000AF78600B46FB70FB78002B25
:101B780006D00949084BDA697B681343CB6106E054
:101B88000549054BDA697B68DB431340CB6100BF2D
:101B98000C37BD4680BC70470010024080B487B047
:101BA80000AF0346FB710023FB6000237B61002329
:101BB800FB74FB795B09DBB2FB60FB68012B03D18B
:101BC800124B1B687B6109E0FB68022B03D10F4BAA
:101BD8001B6A7B6102E00D4B5B6A7B61FB7903F05A
:101BE8001F03FB607A69FB6822FA03F303F0010321
:101BF800002B02D00123FB7401E00023FB74FB7C63
:101C080018461C37BD4680BC704700BF0010024014
:101C180080B485B000AF786039600023FB817B68B1
:101C28001B88FB817B682E4A934213D07B682D4A20
:101C380093420FD07B68B3F1804F0BD07B682A4A60
:101C4800934207D07B68294A934203D07B68284A8D
:101C5800934208D1FB8923F07003FB813B685A88C3
:101C6800FB891343FB817B68224A93420CD07B6833
:101C7800214A934208D0FB8923F44073FB813B68D7
:101C8800DA88FB891343FB817B68FA891A803B68F1
:101C98009A887B689A853B681A887B681A857B686E
:101CA8000F4A93420FD07B680E4A93420BD07B6851
:101CB800124A934207D07B68114A934203D07B684B
:101CC800104A934204D13B681B7A9AB27B681A8601
:101CD8007B6801229A8200BF1437BD4680BC7047DA
:101CE800002C01400034014000040040000800407E
:101CF800000C00400010004000140040004001406B
:101D0800004401400048014080B483B000AF7860CF
:101D18007B684FF6FF729A807B6800221A807B6886
:101D28000022DA807B6800225A807B6800221A72BF
:101D380000BF0C37BD4680BC704700BF80B483B07D
:101D480000AF78600B46FB70FB78002B08D07B68EF
:101D58001B889BB243F001039AB27B681A8007E0A4
:101D68007B681B889BB223F001039AB27B681A80B8
:101D780000BF0C37BD4680BC704700BF80B58CB033
:101D880000AF786039600023FB620023BB62002348
:101D98007B6200233B620023FB617B68FB617B68FD
:101DA8001B8A9BB2FB62FA6A4CF6FF731340FB6214
:101DB8003B68DB881A46FB6A1343FB62FB6A9AB2EC
:101DC8007B681A827B689B899BB2FB62FA6A4EF633
:101DD800F3131340FB623B689A883B681B891343E3
:101DE8009AB23B685B8913439BB21A46FB6A13435A
:101DF800FB62FB6A9AB27B689A817B689B8A9BB27A
:101E0800FB62FA6A4FF6FF431340FB623B689B890B
:101E18001A46FB6A1343FB62FB6A9AB27B689A8292
:101E280007F108031846FFF7CFFDFB692F4A9342D5
:101E380002D17B69BB6201E03B69BB627B689B891D
:101E48009BB29BB21BB2002B0CDABA6A13469B00FA
:101E580013449A001A443B681B685B00B2FBF3F317
:101E68007B620BE0BA6A13469B0013449A001A443B
:101E78003B681B689B00B2FBF3F37B627B6A1C4ADE
:101E8800A2FB03235B091B01FB62FB6A1B0964229B
:101E980002FB03F37A6AD31A3B627B689B899BB285
:101EA8009BB21BB2002B0CDA3B6ADB003233104AC0
:101EB800A2FB03235B0903F00703FA6A1343FB62DF
:101EC8000BE03B6A1B013233094AA2FB03235B097F
:101ED80003F00F03FA6A1343FB62FB6A9AB27B684A
:101EE8001A8100BF3037BD4680BD00BF00380140B1
:101EF8001F85EB5180B483B000AF78600B46FB7050
:101F0800FB78002B08D07B689B899BB243F4005375
:101F18009AB27B689A8107E07B689B899BB223F41D
:101F280000539AB27B689A8100BF0C37BD4680BCCB
:101F3800704700BF80B487B000AF78600B467B80E5
:101F480013467B7000233B610023FB600023BB60CA
:101F580000237B617B687B617B88DBB25B09DBB23A
:101F68003B617B8803F01F03FB600122FB6802FAD8
:101F780003F3BB603B69012B03D17B690C337B61A5
:101F880009E03B69022B03D17B6910337B6102E0D6
:101F98007B6914337B617B78002B06D07B697A6977
:101FA8001168BA680A431A6006E07B697A691168A1
:101FB800BA68D2430A401A6000BF1C37BD4680BCCD
:101FC800704700BF80B483B000AF78600B467B8059
:101FD8007B88C3F308039AB27B689A8000BF0C37EA
:101FE800BD4680BC704700BF80B485B000AF786044
:101FF8000B467B800023FB737B681B889AB27B8827
:1020080013409BB2002B02D00123FB7301E0002395
:10201800FB73FB7B18461437BD4680BC704700BF76
:10202800014B1868704700BF4004002070B50F4E80
:102038000F4D761BB61018BF002405D0013455F893
:10204800043B9847A642F9D10A4E0B4D03F0F8FE1F
:10205800761BB61018BF002406D0013455F8043B8F
:102068009847A642F9D170BD70BD00BF186000083E
:1020780018600008206000081860000870B4840721
:1020880046D0541E002A41D0CDB2034602E0621E5B
:10209800E4B3144603F8015B9A07F8D1032C2ED950
:1020A800CDB245EA05250F2C45EA054519D926463E
:1020B80003F11002103E0F2E42F8105C42F80C5C3F
:1020C80042F8085C42F8045C02F11002F2D8A4F16C
:1020D800100222F00F0204F00F041032032C1344F4
:1020E8000DD91E462246043A032A46F8045BFAD85C
:1020F800221F22F003020432134404F003042CB11B
:10210800C9B21C4403F8011BA342FBD170BC704741
:1021180014460346C2E700BF0EB40146F0B54FF6B9
:10212800FF779CB021AC54F8042B0D4823466FF080
:102138000045029106914FF4027602A900680194C5
:10214800ADF81670ADF814600495079500F038F8EE
:10215800029B00221A701CB0BDE8F04003B0704723
:102168004004002020F0030110F00300C0F100003B
:1021780051F8043B00F1040C4FEACC0C6FF000025C
:102188001CBF22FA0CF213434FF0010C4CEA0C2C42
:102198004CEA0C4CA3EB0C0222EA030212EACC1222
:1021A80004BF51F8043B0430F4D0C2F1000102EA44
:1021B8000102B2FA82F2C2F11F0200EBD2007047AC
:1021C8002DE9F04FBFB00C46079191460D93099049
:1021D80002F064FB036818461493FFF7C3FFA38952
:1021E80015901D0603D52369002B01F06981002392
:1021F8001A460DF1B80A119316930A932393229362
:10220800CDF884A01292139299F800304C46EBB1A5
:10221800252B02D11AE0252B03D014F8013F002BFF
:10222800F9D1C9EB04058DB1229B239A01332A44C5
:10223800072BCAF80090CAF804502392229300F39F
:1022480036830AF1080A0A9B2B440A932378002B49
:1022580000F0F1814FF0FF3B5D4600231A468DF8F0
:10226800673019460B930693637804F1010909F165
:102278000109A3F12000582800F24186DFE810F098
:10228800FA033F063F0603043F063F063F063F06A4
:102298003F063F0659000B043F066600D6033F067B
:1022A800F203B005B005B005B005B005B005B0053E
:1022B800B005B0053F063F063F063F063F063F060E
:1022C8003F063F063F063F06D605FA043F06FA04D6
:1022D8003F063F063F063F0636053F063F063E05DA
:1022E8003F063F063F063F063F0668053F063F0696
:1022F800C1053F063F063F063F063F063F063F062D
:102308003F063F063F061C060206FA04FA04FA04D2
:10231800140602063F063F06AA043F069C05B504BC
:102328006D0011043F0619043F063C043F063F06B2
:1023380077040D9C236818460B932346002803F165
:1023480004030D9306DA0B9B5B420B93069B43F049
:102358000403069399F8003089E7AB460D9A0027E5
:10236800069830217823BB4514688DF8681002F16F
:1023780004024FF000058DF869308DF8677040F061
:102388000201C0F2318620F0800141F0020106917D
:1023980054EA05010D920F93B04800F035812EAE36
:1023A800230943EA0573290904F00F020D461C4668
:1023B800835C06F8013D54EA0503F1D12EAB9B1B63
:1023C8000C930C9B5B45B8BF5B46089300231093A6
:1023D80017B1089B01330893069B13F002030E9371
:1023E80002D0089B02330893069B13F0840840F040
:1023F80020810B9B089A9D1A002D40F31A81102DFD
:102408002399229A964F25DD50461024CA46C14684
:10241800B046099E04E0103D102D00F1080015DDBE
:1024280001321031072A2391229207604460F2DDBD
:1024380021AA0799304603F07DF8002840F0028170
:10244800103D102D2EA82399229AE9DC4646C8464D
:10245800D146824601326C18072A23942292CAF880
:102468000070CAF8045000F3DA809DF867700AF12A
:10247800080A77B1229B013401330DF1670101226B
:10248800072B239422938AE8060000F327820AF197
:10249800080A0E9B6BB1229B023401331AA902224F
:1024A800072B239422938AE8060000F323820AF17B
:1024B800080AB8F1800F00F036810C9BC3EB0B07BC
:1024C800002F3ADD102F229BDFF8988128DD414646
:1024D8002246B0464FF0100B099D079C0E4604E0BB
:1024E800103F102F0AF1080A16DD01331032072BAE
:1024F800239222938AE84008F2DD21AA2146284641
:1025080003F018F8002840F09D80103F102F0DF1BF
:10251800B80A239A229BE8DC14463246464690467F
:1025280001333C44072B23942293CAF80080CAF84D
:10253800047000F3C7810AF1080A069BDA0500F166
:102548009380229B0C9901330C44072B2394CAF8DF
:102558000060CAF80410229300F3E4810AF1080A23
:10256800069B590736D50B9B089A9D1A002D31DD1D
:10257800102D229B3A4F22DD1026DDF82480DDF84D
:102588001CB004E0103D102D0AF1080A17DD0133D4
:102598001034072B23942293CAF80070CAF80460F9
:1025A800F0DD21AA5946404602F0C4FF002849D16F
:1025B800103D102D0DF1B80A239C229BE7DC013356
:1025C8002C44072B23942293CAF80070CAF80450AD
:1025D80000F38A840A9B0B9A08998A42ACBF9B181D
:1025E8005B180A93002C40F05981002322930DF1C7
:1025F800B80A09E60027BB458DF86770C0F2FE846B
:10260800069B23F080030693BBF1000F40F067841C
:102618005F464FF0000BCDF830B02EAED1E621AAC0
:102628000799099802F086FF60B99DF867700DF167
:10263800B80A239C1DE7239B23B1099821AA07996F
:1026480002F078FF079B9B8913F0400F0A9B18BF85
:102658004FF0FF3318463FB0BDE8F08FC45E000866
:10266800905E0008E45E00080F9B652B40F39E8097
:102678001298139900220023FEF76AFA002800F046
:102688006181229BAD49013301340122072B239438
:1026980022938AE8060000F348840AF1080A1B9B83
:1026A800119A934203DB069BDB077FF559AF229B08
:1026B80015990133149A0C44072B2394CAF8002067
:1026C800CAF80410229300F36E860AF1080A119BD7
:1026D8005D1E002D7FF744AF102D229BDFF860822E
:1026E80040F315811026099FDDF81CB005E00AF1BA
:1026F800080A103D102D40F30A8101331034072BCE
:1027080023942293CAF80080CAF80460EFDD21AA56
:102718005946384602F00EFF002893D10DF1B80A49
:10272800239C229BE5E70B9B089A9F1A002F7FF7B3
:10273800C4AE102F229BDFF8088229DD404652469E
:102748002146B0461025099CDDF81CA0064604E089
:10275800103F102F02F1080215DD01331031072B4D
:102768002391229316605560F2DD21AA5146204636
:1027780002F0E0FE00287FF465AF103F102F2EAA6C
:102788002399229BE9DC924632460C4646469046FF
:1027980001333C44072B23942293CAF80080CAF8DB
:1027A800047000F31C850AF1080A86E6119B229D35
:1027B800012B04F1010405F1010540F3D98401233B
:1027C800072D2394CAF800602295CAF8043000F354
:1027D800EA840AF1080A159A0135149B1444072D56
:1027E80023942295CAF80030CAF8042000F3E9843B
:1027F8000AF1080A0023129813990022FEF7A8F993
:10280800119B002800F0EA805E1E002E40F3F58040
:10281800102EDFF82C8129DDCDF830901027C14625
:10282800DDF824B0DDF81C8004E0103E102E0AF11B
:10283800080A18DD01351034072D23942295CAF8AB
:102848000090CAF80470F0DD21AA4146584602F00B
:1028580071FE00287FF4F6AE103E102E0DF1B80A76
:10286800239C229DE6DCC846DDF8309001353444CF
:10287800072D23942295CAF80080CAF8046040F313
:10288800BA8021AA0799099802F054FE00287FF41B
:10289800D9AE239C229D0DF1B80AAEE021AA079972
:1028A800099802F047FE00283FF49FAECAE621AA25
:1028B8000799099802F03EFE00287FF4C3AE0DF197
:1028C800B80AC0E421AA0799099802F033FE002843
:1028D8007FF4B8AE0DF1B80A239C2EE621AA079919
:1028E800099802F027FE00287FF4ACAE0DF1B80A73
:1028F800239CCEE521AA0799099802F01BFE00281F
:102908007FF4A0AE0DF1B80A239CD2E5B846013396
:102918002C44072B23942293CAF80080CAF8045049
:102928007FF71CAE21AA0799099802F003FE002838
:102938007FF488AE239C0DF1B80A11E6E05E00082A
:10294800E45E00081B9D002D40F3FC82109B119A49
:102958009342A8BF1346002B1D460DDD229B2C4435
:102968000133072B2394CAF80060CAF80450229355
:1029780000F3EC850AF1080A109B002DA8BF5B1B29
:10298800002B1D4640F39083102D229BDFF8148501
:1029980040F3CE8441462246B0461027DDF824B0E5
:1029A800079C0E4605E00AF1080A103D102D40F379
:1029B800BB8401331032072B239222938AE8C0008C
:1029C800F1DD21AA2146584602F0B4FD00287FF423
:1029D80039AE0DF1B80A239A229BE6E7013B01358F
:1029E80001361C44072DCAF8006022952394CAF8C2
:1029F80004303FF746AF0AF1080A169A0135144425
:102A08001DAB072D23942295CAF80420CAF800307C
:102A18007FF7A4AD21AA0799099802F08BFD002839
:102A28007FF410AE0DF1B80A239C99E599F80030AF
:102A380009F101042A2B00F0EE86A3F130000928E1
:102A480098BF002500F2388614F8013B05EB850590
:102A580000EB4505A3F130000928F5D945EAE575ED
:102A6800A14606E4069B43F08003069399F80030DC
:102A7800FFF7FDBB99F8003000297FF4F8AB01227D
:102A88002021FFF7F4BB069B43F00103069399F856
:102A98000030FFF7ECBB99F8003001222B21FFF73B
:102AA800E6BB069B43F02003069399F80030FFF736
:102AB800DEBB0D9AAB46166800250F938DF867505C
:102AC800141D002E00F07C85BBF1000FC0F2378585
:102AD8005A462946304602F091F9002800F0A785A9
:102AE800AB46831B0C9323EAE3730D940893CDF84C
:102AF80040B09DF867706BE40F93AB46002A40F036
:102B0800B486069A12F0200300F030810D9C00274D
:102B1800073424F0070303F10801BB450D91D3E9FD
:102B280000458DF86770C0F2AF8222F080030693EB
:102B380054EA050300F03581002D08BF0A2CC0F0C7
:102B480035812EAE204629460A220023FEF75AF880
:102B5800303206F8012D2046294600230A22FEF7C6
:102B680051F804460D4654EA0503EBD126E40F93C9
:102B7800AB46002A40F08F86069BC6489D0640F16A
:102B88004A810D9C073424F0070303F108020D92D3
:102B9800D3E90045069A12F0010700F0338254EA9F
:102BA80005033FF427AD9DF83C2000278DF86920E8
:102BB800069A3023BB458DF868308DF8677042F06F
:102BC8000203C0F2238522F0800343F00203069338
:102BD800FFF7E5BB99F800306C2B00F0DA83069814
:102BE80040F010000690FFF742BB0F93AB46002A57
:102BF80040F03786069A12F0200300F08D800D9C75
:102C08000027073424F0070303F10801BB450D91A1
:102C1800D3E900458DF867700BDB22F0800306933B
:102C280054EA050306D1BBF1000F00F0E585002446
:102C3800002500272EAEE20842EA4572E90804F0B2
:102C480007030D461446303354EA050206F8013DE1
:102C5800F1D1069AD1077FF5B1AB302B3FF4AEAB7B
:102C68003022731E06F8012C2EAAD21A0C921E4688
:102C7800FFF7A7BB0F93AB46002A40F0EE85069BF3
:102C88000D9C1A0704F1070440F1448324F007035C
:102C980003F108020D921A685B6812921393129D51
:102CA800139C2846214602F009FC012840F0A48222
:102CB8002846214600220023FDF754FF002840F053
:102CC800AE849DF867700699734E21F08001734BAE
:102CD80006910F9903224FF0000B08924729D8BF9D
:102CE8001E460C92CDF840B0FFF772BB069B43F02E
:102CF8000803069399F80030FFF7B9BA0F93AB466B
:102D0800002A40F0D985069B43F010030693069AE3
:102D180012F020037FF473AF069911F0100200F04F
:102D2800C7820D98BBF1000F024604688DF8673022
:102D380002F104024FF00005C0F25B8421F080012B
:102D4800069154EA05010D923FF46DAF1F4671E7F5
:102D58000F93AB46002A40F0BB85069B43F0100357
:102D68000693069A12F020037FF4D0AE069911F06C
:102D7800100200F074820D98BBF1000F024604683F
:102D88008DF8673002F104024FF00005C0F23B8471
:102D980021F08001069154EA05010D921F467FF447
:102DA800CBAEBBF1000F3FF434AC00243EAE303460
:102DB80006F8414DFFF702BB002A40F08185069BCB
:102DC8009B0640F190820D9A134604330D930A9B9B
:102DD8001168DD171A462B46C1E90023FFF714BA1C
:102DE800A3F1300000231C4619F8013B04EB8404CE
:102DF80000EB4404A3F130000928F5D90B94FFF740
:102E080038BA0F93AB46002A40F03785069B244812
:102E18009D063FF5B6AE069BDC0640F13C820D9A56
:102E280000251346043314680D93B3E60F93AB469D
:102E3800002A40F01E85069B43F010030693069B6C
:102E4800980640F1F2800D9C073424F00704D4E979
:102E5800002304F108011D4614460D91002A73F160
:102E68000003C0F2F380BBF1000F9DF86770C0F259
:102E78000B81069B23F08003069354EA05037FF435
:102E88005BAE8EE70F93AB46002AD8D08DF867105B
:102E9800D5E700BFC45E0008A45E0008A05E000875
:102EA800B05E0008E45E0008069B43F0400306930A
:102EB80099F80030FFF7DBB90D990F930A680023E2
:102EC80001201F468DF867309B4610930B1D089014
:102ED8008DF890200D930C9024AEFFF77DBA002456
:102EE80000250027FFF75BBA21AA0799099802F085
:102EF80021FB00287FF4A6AB239CFFF76BBB0F9345
:102F0800002A40F0A6840F9A002A3FF494AB0023CD
:102F180001211F4608918DF890208DF867309B4657
:102F280010930C9124AEFFF757BA21AA0799099874
:102F380002F000FB00287FF485AB0DF1B80A239C52
:102F4800FFF7ADBB229BB949013301340122072B9E
:102F5800239422938AE8060000F3C1820AF1080A42
:102F68002DB9119B1BB9069BDF077FF5F9AA229B98
:102F780015990133149A0C44072B2394CAF800209E
:102F8800CAF80410229300F389830AF1080A6D42F3
:102F9800002D40F3C682102DDFF8A08240F3F482A2
:102FA80041462246B0461027DDF824B0079C0E465D
:102FB80005E00AF1080A103D102D40F3E1820133C3
:102FC8001032072B239222938AE8C000F1DD21AA50
:102FD8002146584602F0AEFA00287FF433AB0DF1D3
:102FE800B80A239A229BE6E7914806910F9354EA80
:102FF80005030D924FF000077FF4D1A900240025A6
:10300800FFF7CDB9BBF1000F8DF86770C0F29E8154
:1030180022F08003069354EA05037FF4C0A9BBF1AC
:10302800000F7FF45CAFFFF7F3BA069BD90640F1B7
:1030380007810D9A13461C680433E51722460D9341
:103048002B46002A73F10003BFF60DAF64424FF020
:103058002D0765EB4505BBF1000F8DF86770FFF68E
:103068006BAD069B23F08003069365E50D9ABBF1D3
:10307800000F134614688DF8677003F104034FF0CE
:10308800000580F265810D9354EA05037FF454AD81
:103098008CE621AA0799099802F04CFA00287FF4D7
:1030A800D1AA239C0DF1B80A109A1B9B32441746EB
:1030B800119A93424BDB069AD50748D411990E44CE
:1030C800F51BCB1A9D42A8BF1D46002D2E460DDDCF
:1030D800229A2C440132072A2394CAF80070CAF8AD
:1030E8000450229200F35D820AF1080A002EB4BF50
:1030F8001D469D1B002D7FF733AA102D229BDFF85C
:103108003C817FF704AC47461026DDF81CB0DDF89B
:10311800248005E00AF1080A103D102D7FF7F6AB70
:1031280001331034072B23942293CAF80070CAF88D
:103138000460EFDD21AA5946404602F0FBF9002859
:103148007FF480AA0DF1B80A239C229BE4E7229A17
:103158001598013214990444072A2394CAF80010D8
:10316800CAF80400229200F3FE810AF1080AA5E7D2
:10317800069BD8073FF523AB0123072D2394CAF8F4
:1031880000602295CAF804307FF735AC21AA079968
:10319800099802F0CFF900287FF454AA0DF1B80A73
:1031A800239C229D29E421AA0799099802F0C2F9D3
:1031B80000287FF447AA0DF1B80A239C229DFFF747
:1031C8000ABB21AA0799099802F0B4F900287FF4EC
:1031D80039AA0DF1B80A239C229DFFF70BBB21AA3F
:1031E8000799099802F0A6F900287FF42BAA0DF197
:1031F800B80A239CFFF761B91298139902F05EF997
:10320800002840F0DD8006990A4E21F080010A4B23
:1032180006910F9903228346089210904729D8BF38
:103228001E460C929DF86770FFF7D2B8E05E000862
:10323800C45E0008AC5E0008A85E0008E45E0008F2
:10324800069B0D9A13F0400F13463FF4F4AEB2F903
:1032580000400433E5170D9322462B46FEE50699F8
:1032680011F040073FF402AF0D98BBF1000F034681
:1032780004888DF8672003F104034FF00005C0F2BD
:103288003E8121F08001069154EA05010D9317460D
:103298007FF452AC85E50D9A069B002513F0400F8C
:1032A800134603F104030CBF146814880D9371E4EA
:1032B800069911F0400755D00D98BBF1000F034651
:1032C80004888DF8672003F104034FF00005C0F26D
:1032D800138121F08001069154EA05010D933FF412
:1032E800A2AC1746A6E4069BDF060BD4069B5E0637
:1032F80008D50D9A136804320D92BDF828201A805B
:10330800FEF782BF0D9A136804320D920A9A1A606A
:10331800FEF77ABF24F007042368129363681393B7
:1033280004F108030D93BAE4144632464646904623
:1033380001332C44072B23942293CAF80080CAF83F
:1033480004503FF7A6AE0AF1080AADE60D9A4EE61C
:10335800069A0D9322F08002069254EA05027FF441
:10336800EBAB1EE50D9ABBF1000F134614688DF800
:10337800677003F104034FF00005C0F2BD80069AA0
:103388000D9322F08002069254EA05027FF452ACB3
:1033980049E4069B09F1010943F02003069399F8D3
:1033A8000030FEF764BF21AA0799099802F0C2F815
:1033B80000287FF447A90DF1B80A239CFFF787B9C5
:1033C8000F9BBBF1FF3F23F02003089300F09A8086
:1033D800472B04D1BBF1000F08BF4FF0010B069B30
:1033E800DDF8488043F480730E93139B1F1EB6BF0D
:1033F80003F1004700232D2317930F9B662B00F042
:103408006E81462B00F09181089B1FA8452B18BFA1
:103418005D461CA908BF0BF10105049003911BA888
:1034280002213B460290424601950091099800F01E
:10343800FBFA0F9B0646672B00F0EB800F9B472B90
:1034480000F02D8274194046394600220023FDF70A
:103458007FFB002840F0E9801F9B9C4206D9302161
:103468005A1C1F9219701F9B9C42F9D89B1B1193E1
:10347800089B472B00F0C0800F9B652B40F31A82F6
:103488000F9B662B1B9B109300F04281109A119999
:103498008A42C0F21581069BD90700F1948122EA7D
:1034A800E2730C9267220F92179A002A40F09780D5
:1034B80008930E9B934606939DF86770FEF788BFA6
:1034C8004021099801F0EEF9079A10601061002870
:1034D80000F0D781079A40235361FEF788BE21AADE
:1034E8000799099802F026F800287FF4ABA80DF197
:1034F800B80A1B9D239C33E50D93FFF79ABB0D93E8
:103508001746C1E54FF0060B69E721AA0799099804
:1035180002F010F800287FF495A8239C229B0DF157
:10352800B80A119901330C44072B23942293CAF843
:103538000060CAF804107FF711A8FFF7F3B9304606
:10354800FEF710FEAB460346FFF7CCBA21AA07994F
:10355800099801F0EFFF00287FF474A80DF1B80A6C
:10356800239CFFF709BA21AA0799099801F0E2FFFD
:1035780000287FF467A80DF1B80A1B9B239C9DE5E2
:10358800144632464646904601332C44072B239472
:103598002293CAF80080CAF80450B6DC0AF1080A77
:1035A800BFE721AA0799099801F0C4FF00287FF412
:1035B80049A81B9B119A239CD31A0DF1B80A95E5CB
:1035C8005B46062B28BF06230C9323EAE373B34616
:1035D800374610960D940893BB4EFEF7F9BE089334
:1035E8000E9B2D2706938DF867704FF0000BFEF7A2
:1035F800F0BE0D92FFF71DBB1B9BDD1C23DB9B451B
:1036080021DB109342E70D921F463DE50693FEF736
:10361800C6BE069BDA073FF515AF1F9B26E72D238D
:103628001F468DF86730FFF74EBB23461EE72BEA8F
:10363800EB73CDF830B0089383460D9410909DF845
:103648006770FEF7C5BE0F9A023A0F92013B9DF8CC
:103658003C20002B1B93B8BF5B428DF87420B4BF8D
:103668002D222B22092B8DF8752074DC3033302263
:103678008DF877308DF876201EAB1DAA9B1A119A0B
:103688001693012A13440C9340F3D3800C9B002219
:1036980001330C93109223EAE37305E721AA0799F3
:1036A800099801F047FF00287EF4CCAF0DF1B80A65
:1036B8001B9D239C229B6AE4A1460025FEF7D9BDE9
:1036C800109B6722002BD8BFC3F10205119BC8BF0E
:1036D8000125EB180C930F9223EAE373E4E61FA885
:1036E8001CA9049003911BA80321029042463B4663
:1036F800CDF804B00091099800F096F95D460646A9
:1037080000EB0B043378302B50D01B9D2C449AE6E9
:10371800002B68DDBBF1000F5DD1069AD4075AD49F
:103728001A4623EAE3730C92BEE61FA81CA904906C
:1037380003911BA80321029042463B46CDF804B0F2
:103748000091099800F070F95D4606460F9B7419C0
:10375800462BD7D077E60DF1830004465B4A82FBFF
:103768000321DA17C2EBA10101EB8102A3EB4202AC
:10377800303209290B4604F8012DEFDC224630339C
:10378800DBB202F8013D904240F282800DF17601F1
:10379800224601E012F8013B904201F8013BF9D1C1
:1037A800431C1B1B0DF17602134466E7404639465D
:1037B80000220023FDF7CCF90028A6D1C5F10105A8
:1037C8001B952C443FE6109B672201330C930F9204
:1037D80023EAE37368E6109B0BF101052B440C9375
:1037E80023EAE37360E6BBF1000F2CD1069BD807F0
:1037F80029D401230C9357E6069B5F46DB0705D5C2
:103808003EAE302306F8413DFEF7D8BDCDF830B0C6
:103818002EAEFEF7D6BD0D9899F801300568043034
:10382800002D0D90A146BEF622AD4FF0FF35FEF7F4
:103838001EBD069B13F001037FF428AF10930C9B69
:1038480023EAE37330E60BF102030C9323EAE373F4
:103858002AE68DF86710FFF756BB8DF86710FFF75B
:103868000EBA8DF86710FFF7C5B98DF86710FFF726
:1038780048B98DF86710FFF7DEBA8DF86710FFF7C3
:10388800C5BA099A0C2313604FF0FF30FEF7E3BE68
:103898000DF17603F1E68DF86710FFF76DB9069B19
:1038A800DB073FF553AF1F9B9B1B1193089B472BCF
:1038B8003FF4A2AE1B9BC9E68DF86710FFF723BA49
:1038C8008DF86710FFF77BBAD85E000867666666F2
:1038D8008DF86710FFF741BA024B13B1024800F0A8
:1038E80005B87047000000007D4800080023014625
:1038F8001A46184601F09EBE2DE9F04F03690F697C
:1039080083B09F4200F38980013F01F1140600F162
:10391800140A56F827305AF827200133B2FBF3F877
:10392800BB00009306EB030953440193B8F1000F61
:103938003BD000231C46B446D6465CF804BBDEF8F0
:1039480000501FFA8BF208FB02324FEA1B4B130C94
:1039580008FB0B3392B2A41A1FFA83FBAAB22244C3
:10396800CBEB154404EB224492B242EA0442E1450F
:103978004EF8042B4FEA24444FEA1343DDD2009B50
:103988005AF803308BB9019C231F9A450CD254F87E
:10399800043C4BB9A4F1080302E01A68043B1AB9C5
:1039A8009A4507F1FF37F8D30761044601F07EFC1A
:1039B80000282EDB00235546194608F1010856F861
:1039C800042B2B6890B2081A120C99B2C2EB13435D
:1039D800421803EB224392B242EA0342B14545F84A
:1039E800042B4FEA2341EAD25AF827200AEB87032F
:1039F8007AB91A1F92450BD253F8042C42B9083BE6
:103A080002E01A68043B1AB99A4507F1FF37F8D360
:103A18002761404603B0BDE8F08F002003B0BDE841
:103A2800F08F00BF000000002DE9F04F016C99B045
:103A3800814692469B46259C49B1426C012393409E
:103A48008B604A6001F04CFA0023C9F84030BBF1A2
:103A5800000FD84633DB00232360A34B1A4608EA3D
:103A68000303934214D00022002350465946FDF721
:103A78006FF8054648B3249A01231360269B002B50
:103A880000F0C58099481860013819B0BDE8F08F7A
:103A980042F20F73249A1360BAF1000F00F0A2806B
:103AA8009348269B002BF0D0C378002B00F0B18000
:103AB80000F10803269A136019B0BDE8F08F0123BE
:103AC8002BF000482360C346C7E716AA17AB01923C
:103AD800009352465B46484601F09CFC5FEA185446
:103AE800099040F08880169D179C2C4404F23243BC
:103AF800202B40F38A82C3F1400304F2124008FAF3
:103B080003F82AFA00F040EA0800FCF743FD012315
:103B1800013CA1F1F8710F930022764BFCF7FCFBF6
:103B28006BA3D3E90023FCF7ABFD6BA3D3E9002318
:103B3800FCF7F4FB064620460F46FCF73BFD68A35E
:103B4800D3E90023FCF79CFD02460B463046394674
:103B5800FCF7E4FB06460F46FDF72CF8002203901D
:103B6800002330463946FCF7FDFF002840F0298243
:103B7800039E162E00F222825F49524601EBC601CF
:103B88005B46D1E90001FDF70BF8002800F04282FE
:103B9800731E039300230D932C1B631E049300F1E3
:103BA8002B8200230693039B002BC0F21C82049AED
:103BB8000C9311461944002304910B93229B092B63
:103BC80029D8052B40F35286043B22930025229BDB
:103BD800023B032B00F22F86DFE813F027032002B5
:103BE80032035304424B454AC8F31300002814BF5C
:103BF8001846104655E7CBF3130343F07F510F9552
:103C08005046A4F2FF3441F44011169D84E73C4825
:103C18003BE7C31C4EE70021C9F8441048462291EF
:103C280001F036F94FF0FF33229A07930E930123E0
:103C380008902392C9F840000A93179B002BC0F202
:103C4800CA80039A0E2A00F3C6802B4B03EBC203EB
:103C580018CBCDE90434239B002BC0F2FC825646D6
:103C68005F46DDE904AB304652465B463946FCF711
:103C780031FEFCF79FFF0446FCF79CFC52465B466E
:103C8800FCF7FEFC02460B4630463946FCF744FB7F
:103C9800079E089F04F13005012E3D7002460B4631
:103CA80007F101055ED00022164BFCF7E9FC002263
:103CB800002306460F46FCF74BFF002878D1CDF8C5
:103CC8001890DDF81CA0DDF820B0DDE9048928E0B3
:103CD80061436F63A787D23FB3C8608B288AC63F0A
:103CE800FB799F501344D33F0000F07FE15E00084A
:103CF800005F00080000F83F205F0008F45E00083D
:103D0800E05E0008000024400022C34BFCF7B8FC2A
:103D18000022002306460F46FCF71AFF002840F051
:103D2800B38342464B4630463946FCF7D3FDFCF791
:103D380041FF0446FCF73EFC42464B46FCF7A0FC1C
:103D480002460B4630463946FCF7E6FA04F13006DF
:103D580005F8016BCBEB0506564502460B46D3D159
:103D6800DDF8189010461946FCF7D8FA06460F46B3
:103D780002460B46DDE90401FCF7F4FE40B9DDE933
:103D8800040132463B46FCF7E3FE88B1E3070FD552
:103D980015F8014C6B1E089A04E09A4200F02C8436
:103DA80013F8014D392C03F10105F6D001341C70CC
:103DB8000999484601F094F80022039B2A70249A36
:103DC80001331360269B002B00F0A88308981D6020
:103DD80019B0BDE8F08F0A9A002A00F01281229AE1
:103DE800012A40F35A82079B0B9A5F1EBA42C0F21F
:103DF8009883D71B079B002BC0F28C84069D079BDA
:103E0800069A01211A440692049A48461A440492D2
:103E180001F0FEF8064665B1049900290B4608DD55
:103E2800A942A8BF2B46069AED1AD21ACB1A0692B7
:103E380004930B9B002B40F3FD820A9A002A00F0A2
:103E48000382002F00F0008231463A46484601F0CE
:103E580087F9DDF82480014642460646484601F0C7
:103E6800E1F841460446484601F03AF80B9BDB1B53
:103E78000B9340F0E8810121484601F0C9F80C9BFA
:103E88008046002B00F01B8201461A46484601F086
:103E980067F9229B8046012B40F3F9820027D8F866
:103EA800103008EB8303186901F064F8C0F12000B2
:103EB800049A104410F01F0000F0F881C0F12003AC
:103EC800042B40F3CB84069BC0F11C0003440693EB
:103ED8001346034405440493069B002B05DD214645
:103EE8001A46484601F08CF90446049B002B05DD70
:103EF80041461A46484601F083F980460D9B002B3F
:103F080040F07D82079B002B40F396820A9B002B92
:103F180040F0F681DDF820A0079F554604E02146D1
:103F2800484600F0E7FF044641462046FFF7E4FC18
:103F3800303005F8010BCAEB0503BB424FF00A020B
:103F48004FF00003EBDB089B079A8246012AACBFBF
:103F58009B1801331D464FF0000B214601224846AD
:103F680001F04EF94146099001F0A0F9002840F30C
:103F78000E8315F8012C6B1E089904E08B4200F0A3
:103F8800798213F8012D392A03F10105F6D001329F
:103F98001A704146484600F0A3FF002E3FF408AFD0
:103FA800BBF1000F05D0B34503D05946484600F091
:103FB80097FF3146484600F093FFF9E601230D9339
:103FC800EAE5DDF80C804046FCF7F4FA02460B46B9
:103FD80030463946FCF7BCFD00287FF4C9AD08F12E
:103FE800FF330393C4E5069A039BD21A5B420B93F3
:103FF800002306920C93E1E55B42069300230493A9
:10400800D1E50B9F069D0A9E05E7C3F120080AFA31
:1040180008F07AE50D90BFE50000244000230A93DC
:10402800039B239A13440E930133002B079340F309
:104038008582079C26460021172EC9F844100BD903
:10404800012204235B0003F11400B042114602F17F
:104058000102F7D9C9F84410484600F019FF0E2CA0
:104068000890C9F840003FF6E8AD002D3FF4E5ADF3
:104078005746D8460399CDE91078002940F3938232
:10408800924B01F00F020E1103EBC203F006D3E9C5
:10409800004540F14E828E4B5046D3E908235946DD
:1040A800FCF718FC82468B4606F00F064FF0030813
:1040B80086B1874FF10709D5D7E90023204629465D
:1040C800FCF7DEFA04460D4608F10108761007F100
:1040D8000807EFD122462B4650465946FCF7FAFB13
:1040E80006460F460D9B43B100227A4B30463946AF
:1040F800FCF738FD002840F023834046FCF75AFAC5
:1041080032463B46FCF7BCFA734B0022FCF706F933
:10411800079B0446A1F15075002B00F0E181039B39
:104128001393079B12930A9B002B00F09882129A14
:10413800664B002003EBC20353E902236749FCF7EF
:10414800C9FB22462B46FCF7E7F882468B463046E9
:104158003946FCF72FFD0446FCF72CFA02460B46BD
:1041680030463946FCF7D8F83034089DE4B20646A4
:104178000F462C7002460B46504659460135FCF74F
:104188000FFD00284ED132463B4600205149FCF72E
:10419800C3F802460B4650465946FCF701FD002875
:1041A80040F00E83129A012A40F3B481129B089AB8
:1041B800134498460FE032463B4600204549FCF739
:1041C800ABF852465B46FCF7CDFC002840F0F8827D
:1041D800454500F09F81504659460022404BFCF768
:1041E8004FFA00223E4B82468B4630463946FCF752
:1041F80047FA0F460646FCF7DDFC0446FCF7DAF9F9
:1042080002460B4630463946FCF786F83034E4B2AD
:1042180005F8014B52465B4606460F46FCF7A2FCE2
:104228000028C8D0139B0393C2E500230A93239B5D
:10423800002B40F388811E461C460E930793FAE62E
:1042480001230A93F3E709940B9A0999484600F069
:1042580087FF04460FE6079B002B3FF700AD40F0B1
:10426800D982DDE9040100221E4BFCF709FA524607
:104278005B46FCF78BFCDDF81C804646002800F006
:10428800F180239B089DDB4303934146484600F099
:1042980027FE002E3FF48CAD8BE60F9A002A00F023
:1042A800418203F233430B9F069DA9E51C20069B20
:1042B800054403440693049B034404930CE6229BA1
:1042C800012B40F381820C9F0120F1E5205F00085B
:1042D800E85F00080000F03F00001C400000E03FDD
:1042E8000000244000001440314600230A224846BA
:1042F80000F000FE0E9B0646002B40F397820793C2
:10430800002D05DD31462A46484600F079FF06466D
:10431800002F40F07B810696079B089A013BD31833
:10432800099317460AF00103C246DDF818B00A934C
:1043380051462046FFF7E0FA31460546204600F090
:10434800B5FF5A4604905146484600F0CFFFC26870
:10435800804605F13003002A49D1014620460793DB
:1043680000F0A4FF41460690484600F0B9FD069AC1
:10437800079B2AB9229919B90A99002900F03682AF
:1043880004990029C0F2E48005D1229919B90A9943
:10439800002900F0DD80002A00F34C81099A07F11A
:1043A800010897423B70454600F05381214600239F
:1043B8000A22484600F09EFD5E45044631464FF00D
:1043C80000034FF00A0248460BD000F093FD59460F
:1043D800064600230A22484600F08CFD47468346DD
:1043E800A6E700F087FD474606468346A0E7014654
:1043F8004846069300F074FD0122069BC0E741463B
:10440800204600F053FF0028BFF67CAD2146039CF0
:104418000023013C0A224846039400F06BFD0A9BE6
:104428000446002B7FF460AF0E9B002B40F3F6810F
:1044380007936FE5099C1EE5229B022B7FF766AD6B
:10444800079B002B40F07A8141460522484600F040
:1044580051FD01468046204600F028FF00280994B7
:104468007FF70FAF039A08993123013203920B703B
:104478004D1C0AE7039A312301320392089A1370FC
:1044880087E501230A93CBE5DDF8189090E4BAF1AB
:10449800000F7FF403ADCBF31303002B40F04081F2
:1044A8002BF000473F0D3F0537B1069B012701332D
:1044B8000693049B013304930C9B0120002B3FF4CB
:1044C800F7ACECE44046FCF775F832463B46FCF79F
:1044D800D7F80022BF4BFBF721FF0446A1F1507526
:1044E800304639460022BC4BFBF716FF22462B46C6
:1044F80006460F46FCF754FB8046002840F006812C
:10450800224605F1004330463946FCF72BFB08B13B
:104518004646B6E6DDE910ABFFF78FBB0898FFF714
:10452800B4BA0B9B0C9AFB1A1A440B970C920027EF
:1045380060E4DDE910AB4FF00208B9E51C46002144
:10454800C9F8441088E5012423940E940794F6E7EB
:10455800002AD046CDF818B09A4611DD214601222E
:10456800484600F04DFE4146044600F09FFE0028F4
:1045780040F34981BAF1390F00F0078105F1310A9A
:10458800B34687F800A07D1C069E099401E504D176
:104598001AF0010F01D0ECE4154615F8013C6A1E2B
:1045A800302BF9D0F5E4039B5C42002C00F0C1806D
:1045B800DDE91001894B04F00F0203EBC203D3E9D4
:1045C8000023FCF75DF8241106460F4600F02B8106
:1045D800834D4FF00208E20709D5D5E9002330469C
:1045E8003946FCF74DF806460F4608F101086410F5
:1045F80005F10805EFD175E5089930220A70039A8C
:1046080015F8014C01320392FFF7D0BB7168484698
:1046180000F03EFC0546336906F10C019A1C920035
:104628000C30FBF7FFFD29460122484600F0E8FD63
:10463800069071E6392BCDF818B0D04600F0A58069
:1046480003F1010AB34687F800A07D1C069E099471
:104658009FE45A46D046B3469A4616467DE4129BD6
:104668005E4903F1FF3A01EBCA012246D1E9000194
:104678002B46FCF705F8CDE9140139463046FCF71E
:1046880099FA0446FBF796FF0B4602463946304630
:10469800FBF742FE129B0F4608993034012B064661
:1046A8000C7001F101051FD0129B089AA84613440B
:1046B8009B4600224B4B30463946FBF7E1FF0F463D
:1046C8000646FCF777FA0446FBF774FF02460B46EA
:1046D80030463946FBF720FE303408F8014BC34515
:1046E80006460F46E5D1554400223F4BDDE914014B
:1046F800FBF714FE32463B46FCF734FA00284CD050
:10470800139B039315F8014CFFF744BB4FF00008C7
:104718004646A7E6069B079A9D1A0023FFF770BB3B
:104728000027C9E6169B0B9FC3F13603069DFFF7CA
:1047380067BBDDE910674FF00208D3E40994A0E5F0
:10474800079B002B3FF4BEAE0E9B002B7FF7E2AE1B
:104758000022244B30463946FBF792FF06460F46A7
:1047680008F10100FBF726FF32463B46FBF788FFBE
:104778000022184BFBF7D2FD039A0E9B013A044620
:104788001392A1F150751293CDE43922B3460994DE
:10479800069E3A707D1CFFF7EEBBDDE9142300206E
:1047A8001149FBF7B9FD32463B46FCF7F9F908B960
:1047B800B0E6154615F8013C6A1E302BF9D031E5F4
:1047C800139B0393FFF7E6BABAF1000F7FF47BADB2
:1047D80061E600BF00001C4000001440205F000894
:1047E800E85F0008000024400000E03F392BCDF8C6
:1047F80018B0D046DDF810B09A46C6D0BBF1000F0D
:104808003FF7BCAEBCE67FF4BBAE1AF0010F3FF435
:10481800B7AEAFE64FF00008464632E5229B022BC2
:1048280021DC0E9B04E64FF002085BE4229B022B7E
:1048380019DC0E9B63E50024C9F84440214648462C
:1048480000F026FB4FF0FF3307930E9301230890E7
:104858002394C9F840000A93FFF7EFB93FF43CAB43
:10486800C0F13C0023E50E9B0793E9E50125FFF71E
:10487800AEB900BF38B5074D074C2C1BA41005D0A6
:10488800013C55F8043D9847002CF9D1BDE8384063
:1048980001F0DCBA24600008206000080048704776
:1048A800440400202DE9F04F01F10B05162D83B0CB
:1048B800064640F2A08035F0070500F1C080A94205
:1048C80000F2BD8000F0E0FAB5F5FC7FC0F0908200
:1048D8006B0A00F0BB80042B00F27781A80900F175
:1048E800390E4FEA4E013830BE4F07EB81014C6854
:1048F8000839A14207D1AEE0002A80F2AE80E46810
:10490800A14200F0A880636823F003035A1B0F2A12
:10491800F2DDB4493C6901F1080E744500F0A88144
:10492800636823F003035A1B0F2A00F38E81002AC1
:10493800C1F814E0C1F810E080F29380B3F5007F6D
:1049480080F05C81DB084A684FEAA3094FF0010C4C
:10495800013351F833800CFA09F901EBC30C49EA29
:104968000202ACF1080CC4F80CC0C4F808804A6014
:1049780041F83340C8F80C40831001249C4094420D
:104988007CD8144206D120F003006400144200F1E0
:104998000400FAD007EBC009CC468046DCF80C10BE
:1049A8008C4507D166E1002A80F27481C9688C457C
:1049B80000F060814B6823F003035A1B0F2AF2DDD5
:1049C8000C46CB6854F808CF45F00108C1F80480BC
:1049D8000D4442F00101CCF80C303046C3F808C051
:1049E8007D613D61C5F80CE0C5F808E06960AA5032
:1049F80000F04CFA1FE0102921D800F045FA1025E4
:104A080006230220774F07EB83035C68A3F10802B3
:104A1800944200F038816368E16823F0030323447B
:104A28005A68A56842F00102E96030468D605A6014
:104A380000F02CFA0834204603B0BDE8F08F0024BB
:104A480020460C23336003B0BDE8F08F80214FF07F
:104A5800400E3F2048E770465BE723445A68E16808
:104A6800DFE723445A68304642F001025A600834AE
:104A780000F00CFA204603B0BDE8F08FBC6863680C
:104A880023F00308A84504D3C5EB08030F2B00F354
:104A98008C80554BDFF860911A68D9F800302A44A9
:104AA800013304EB080A00F0608102F580520F32EE
:104AB80022F47F6222F00F0211463046019200F084
:104AC80027FDB0F1FF3F8346019A00F058818245E7
:104AD80000F2FC80454BDA4519681144196000F072
:104AE8005381D9F80000DFF810E101301BBFCAEB91
:104AF8000B0A5144CEF800B019601BF0070100F012
:104B08001781C1F10800C1F58051834408315A4426
:104B1800C2F30B02C2EB010949463046019300F08B
:104B2800F7FC431C019B00F03F81CBEB00024A4499
:104B380042F001021968BC424944C7F808B019603C
:104B4800CBF80420DFF8A49016D0B8F10F0F40F28C
:104B5800FD806268A8F10C0323F0070302F001024C
:104B6800E0184FF0050E1A430F2B6260C0F804E0FE
:104B7800C0F808E000F21C811D4BBC681A6891421D
:104B880088BF19601B4B1A689142626888BF196018
:104B980022F003029542A2EB050301D80F2B04DC97
:104BA800304600F073F9002445E745F0010243F070
:104BB8000103254462603046BD6008346B6000F034
:104BC80065F9204603B0BDE8F08F142B71D9542B3A
:104BD80000F2A480280B00F16F0E4FEA4E016E30F0
:104BE80082E600BF7C040020BC080020C00800202A
:104BF800B8080020B4080020880800205A0A042AAF
:104C08005ED9142A00F2B38002F15C0149005B32DC
:104C180007EB810C57F82110ACF1080C8C45DFF834
:104C2800D88100F088804A6822F00302934202D2B9
:104C380089688C45F7D1D1F80CC07A68C4F80CC0E3
:104C4800A160CCF80840CC6096E645F0010742F038
:104C580001032544676030464D610D61C5F80CE0DD
:104C6800C5F808E06B60AA50083400F00FF9E2E6D6
:104C78004A6881E608F1010818F0030F0CF1080CE6
:104C88007FF48CAE30E0DC68A34208BF02303FF40A
:104C980040AEC0E60C460B445A68C96854F8085F31
:104CA80042F001025A603046E9608D6000F0EEF88B
:104CB800C1E603F15C0E03F15B004FEA4E0113E617
:104CC8009A0902F1390149003832A1E7BC424A4B3E
:104CD8003FF400AF9C68626822F003025AE759F873
:104CE8000839994540F0828010F0030F00F1FF3039
:104CF800F5D17B6823EA04037B6064009C423FF69D
:104D0800BDAE002C3FF4BAAE1C4240467FF442AE22
:104D180064001C4200F10400FAD03BE6B3F5AA7F18
:104D280018D8E80B00F1780E4FEA4E017730DBE532
:104D38004FF48051EBE60121D8F80430921001FAC3
:104D480002F21A43C8F80420614677E70123CBF83A
:104D5800043025E740F25452934220D8A80C00F1C1
:104D68007D0E4FEA4E017C30BEE51032A4E6542A8F
:104D780026D81A0B02F16F0149006E3248E7BC6869
:104D8800626822F0030205E7CAF30B0000287FF4EB
:104D9800A8AE4244BB6842F001025A60ECE6FE212C
:104DA8004FF07F0E7E209FE501224FF00009C1E6FB
:104DB80004F10801304600F00DFDD9F80010DBE6DB
:104DC800B2F5AA7F05D8DA0B02F1780149007732EB
:104DD8001EE740F254518A4205D89A0C02F17D012F
:104DE80049007C3214E7FE217E2211E77B6884E7C4
:104DF800E808431C5B0005E67C040020830770B4C8
:104E0800CDB23DD0531E02B30278AA421ED0421C36
:104E180004E0D3B10478013BAC4217D012F0030F81
:104E2800104602F10102F4D1032B11D853B30278D2
:104E3800AA420BD00344421C02E00178A94205D0E3
:104E48009342104602F10102F7D1002070BC70476E
:104E580004460E0206F47F462E4346EA06462268BA
:104E680020467240A2F1013121EA020212F0803F8D
:104E780004F10404DBD1043B032B2046EFD8D5E72B
:104E88001346D1E71846E1E7704700BF704700BFF7
:104E9800C26C70B505460C4652B152F824308BB13D
:104EA800196842F82410002218461A61DA6070BDA9
:104EB8002122042100F010FCE86402460028ECD10D
:104EC800002070BD012101FA04F6721D28469200E7
:104ED80000F002FC03460028F2D044608660E2E756
:104EE80031B1C36C4A6853F82200086043F82210B5
:104EF800704700BFF0B50C4605460E6983B001F156
:104F0800140E0027DEF80000013781B202FB0131E0
:104F1800000C0B0C02FB003389B201EB0341BE42CB
:104F28004EF8041B4FEA1343ECDC3BB1A2689642EF
:104F380007DA04EB8602013653612661204603B086
:104F4800F0BD6168284601310193FFF7A1FF0746CC
:104F5800226904F10C01023292000C30FBF762F96D
:104F6800EA6C6168019B52F82100206042F82140F8
:104F78003C46DEE7030C1B04B3B90004102310F011
:104F88007F4F04BF0002083310F0704F04BF0001C8
:104F9800043310F0404F04BF80000233002807DBC1
:104FA800420003D4202070470023E8E7581C7047CC
:104FB80018467047036813F0070207D0D90720D4B2
:104FC8009A0720D49B0803600220704799B209B958
:104FD8001B0C102213F0FF0F04BF1B0A083219071D
:104FE80004BF1B090432990704BF9B080232D90782
:104FF80004D45B0801D120207047013203601046B9
:105008007047002070475B0803600120704700BFAD
:1050180010B50C460121FFF73BFF012244610261F4
:1050280010BD00BF2DE9F04F0D69166985B0B54276
:105038000C46914604DA2A464C46354689461646B9
:10504800A36805EB060861689845C8BF0131FFF7FA
:105058001FFF00F1140A0AEB880BDA45019005D20C
:105068005346002143F8041B9B45FBD809F114095A
:1050780009EB860304F11402994502EB850C59D219
:10508800CDF808B0CDF80C809B46904659F8047BC3
:105098001FFA87FEBEF1000F1FD047465646002173
:1050A80000E00646304657F8045B3468ABB2A2B25B
:1050B8000EFB03222D0C240C0EFB0544531804EBA5
:1050C80013419AB242EA0142BC454FEA114140F805
:1050D800042BE6D8716059F8047C3F0C22D0DAF82A
:1050E8000030002255461E464046964600E02546BA
:1050F8002C460288360C07FB026699B206EB0E02B4
:1051080041EA024344F8043B50F8041B6E68090C5A
:10511800B3B207FB0131844501EB12434FEA134E4A
:10512800E5D86B60CB450AF1040AAFD8DDF808B0C2
:10513800DDF80C80B8F1000F0BDD5BF8043CABF137
:10514800040B1BB105E05BF8043D13B9B8F1010885
:10515800F9D10198C0F8108005B0BDE8F08F00BF04
:1051680012F003032DE9F041144607462ED10E46EE
:10517800A4101CD0BD6C95B3E3074FF0000806D40B
:10518800641014D02868A8B10546E307F8D52A4664
:1051980031463846FFF746FFB6B17268FB6C6410BB
:1051A80053F82210316043F822600646EAD13046AF
:1051B800BDE8F0812A4629463846FFF733FF2860C4
:1051C800C0F800800546E0E70646D9E70B4A013BF0
:1051D80052F823200023FFF78DFE0646C8E7012179
:1051E8003846FFF755FE40F2712101220023416144
:1051F80002610546B8640360BEE700BF105F00089F
:105208002DE9F84F0B69541104EB03088B6808F17A
:1052180001059D420E4691468346496804DD5B00C0
:105228009D4201F10101FADC5846FFF731FE002CDE
:1052380000F1140237DD02EB8403002142F8041B5D
:105248009342FBD1346906F1140119F01F0901EBEF
:10525800840E20D0C9F1200C00240F681A4607FAE2
:1052680009FA4AEA040443F8044B51F8044B8E4502
:1052780024FA0CF4F1D854600CB108F10205DBF8FB
:105288004C307268013D53F822100561316043F8D3
:105298002260BDE8F88F043B51F8042B8E4543F893
:1052A800042FF9D8EBE71346CCE700BF02690B6976
:1052B800D21A12D19B0014301431194410B403448B
:1052C80001E098420BD253F8044D51F8042D944252
:1052D800F7D007D3012010BC704710467047002054
:1052E80010BC70474FF0FF30F5E700BF2DE9F047DD
:1052F8000B690C46116990465B1A002B18D189007E
:1053080004F1140602F114077318394401E09E42AF
:1053180069D253F8045D51F8042D9542F7D06BD249
:105328002346B24644463E4698464FF0010906E0F9
:1053380066DB04F1140602F1140A4FF000096168F3
:10534800FFF7A6FD5546D4F810E0D8F810303746D8
:10535800C0F80C900AEB830C06EB8E0600F11404DF
:105368004FF0000957F8042B55F8041B1FFA82F870
:1053780008EB09031FFA81F8090CC8EB0303C1EB1A
:10538800124202EB23429BB243EA0243AC4544F883
:10539800043B4FEA2249E5D8BE4218D9A046BC468C
:1053A8005CF8042B95B205EB09010B1403EB1242D0
:1053B8008BB243EA0243664548F8043B4FEA224968
:1053C800EED8FF43374427F0030704373C44043C36
:1053D8002BB954F8043D0EF1FF3E002BF9D0C0F86C
:1053E80010E0BDE8F0870021FFF752FD01220023FD
:1053F80002614361BDE8F087BA464FF000099EE7B5
:10540800234604F1140A08F1140644464FF0010932
:10541800984694E7F0B5012183B01C46C3F30A55BA
:105428001646FFF735FDC4F3130407460DB144F4DF
:105438008014019406B302A840F8086DFFF7BAFD7E
:10544800002830D19DE80C007A61002B0CBF0121A7
:105458000221BB613961D5B9089A07EB8103A0F233
:10546800324010601869FFF785FD099BC0EB4110B9
:105478001860384603B0F0BD01A8FFF79BFD019BFB
:105488000122114620303A617B61002DE4D0A5F25B
:105498003343089A03441360099BC0F13500186030
:1054A800384603B0F0BD019BC0F12001009A03FA11
:1054B80001F10A43C34001937A61C6E731F0004322
:1054C80010B407D0104AA1F58014944206D80420DD
:1054D80010BC704710B9022010BC704701F1FF41A1
:1054E800094A01F5E0019142F1D9B3F5801F01D2D3
:1054F8000320EDE7054A934201D00020E8E7B0FA1F
:1055080080F04009E4E700BFFFFFDF7F0000F07F85
:1055180038B5074C0023054608462360FBF72AFEEA
:10552800431C00D038BD2368002BFBD02B6038BD4E
:10553800E80800202DE9F04F936883B09046002BCF
:1055480072D04FF000090D464C468346166808682D
:105558008B68002C45D09C421F469A4646D3AB899F
:1055680013F4906F2DD06F69296907EB4707C1EBDA
:10557800000A07EBD777601C7F105044B8423A46C0
:1055880084BF07463A465B0533D511465846FFF7B0
:1055980089F9002837D0524629690190FAF742FE66
:1055A800AA89019B22F4906242F08002AA81CAEB88
:1055B800070203EB0A006F61A24627462B612860A9
:1055C800AA605246494600F0EDF9D8F80820AB68C1
:1055D8002868DB1B5044141BAB602860C8F80840DF
:1055E80014B3D6F8009074680836B2E72746A24686
:1055F800E7E7584600F03AFA03460028D7D1296968
:10560800584600F0E7F80C23CBF80030AB890022AD
:1056180043F040034FF0FF30AB81C8F80820C8F8CA
:10562800042003B0BDE8F08F0020C8F8040003B0E0
:10563800BDE8F08F2DE9F047254C064625688846D9
:10564800D5F8484192469946C4B360681F2817DCCC
:10565800411C76B104EB8003C3F888A0D4F88851C4
:10566800012282401543022EC4F88851C3F80891DC
:105678001ED0831C6160002044F82380BDE8F087B9
:10568800144B03B34FF4C870AFF300800446D0B195
:10569800D5F84831002784E888003846C5F84841DD
:1056A8000121C4F88871C4F88C71002EE1D0D1E7CB
:1056B800D4F88C311A43C4F88C21DAE705F5A674BE
:1056C800C5F84841C1E74FF0FF30BDE8F08700BF9B
:1056D8008C5E00080000000010B502FB01F1FFF726
:1056E800E1F80446D8B150F8042C22F00302043A39
:1056F800242A18D8132A14D900231B2A03604360CC
:1057080016D9242A8360C36011BF00F11002036117
:10571800436100F118020023136053609360204630
:1057280010BD0246F7E70021FCF7A8FC204610BD93
:1057380000F10802EFE700BFF8B50C46224F064615
:10574800FFF7A2FBBB685D6825F00305291B01F67E
:10575800EF7121F47F6121F00F01A1F58054B4F5B8
:10576800805F07DB00213046FFF7D2FEBB682B4481
:10577800984204D03046FFF789FB0020F8BD61420B
:105788003046FFF7C5FE01300DD0104BBA681968D6
:105798002D1B45F001053046091B55601960FFF7C0
:1057A80075FB0120F8BD00213046FFF7B1FEBA684D
:1057B800831A0F2BDEDD064C0449246843F00103ED
:1057C800001B53600860D5E77C040020C008002057
:1057D80088080020002945D02DE9F0410D46804673
:1057E800FFF752FB55F8047C6A49A5F1080427F035
:1057F8000103E2188E685068B24220F0030062D0BC
:10580800FE0750600BD455F8087C01F1080EE41B24
:10581800A5683B4475456FD0E768EF60BD60151813
:105828006D68ED0742D543F001026260E350B3F5BD
:10583800007F18D2DB0848689D100122013351F817
:10584800337002FA05F501EBC3022843083AE26017
:10585800A760486041F83340FC604046BDE8F0412D
:10586800FFF714BB70475A0A042A53D89A0902F161
:1058780039077F0002F1380501EB870051F827202E
:105888000838904243494DD0516821F003018B42BA
:1058980002D292689042F7D1D068E060A26084603A
:1058A800D4604046BDE8F041FFF7F0BA95683A4F3A
:1058B8000344BD423FD0D06843F00102E8608560F0
:1058C8006260E350B3E7FF07034407D455F8085C68
:1058D800641BE268A0682B44C26090602F4A43F0C2
:1058E80001001268606093428C60B6D32C4B40462E
:1058F8001968FFF721FFB0E711184968C90744D4B0
:1059080091680344D26843F00100CA609160606006
:10591800E350A2E7142A17D802F15C077F0002F1CE
:105928005B05A9E7AA104B68012505FA02F21343A3
:105938004B600246B1E743F001024C610C61E5603F
:10594800A5606260E35088E7542A06D81A0B02F172
:105958006F077F0002F16E058EE7B2F5AA7F06D8C1
:10596800DA0B02F178077F0002F1770584E740F24D
:105978005450824206D89A0C02F17D077F0002F14A
:105988007C0579E7FE277E2576E743F00102626011
:10599800E35062E77C04002084040020840800208F
:1059A800BC0800208842F0B50DD98B1898420AD25D
:1059B8008118002A51D09A1A13F8014D934201F820
:1059C800014DF9D1F0BD0F2A48D941EA00039B07E0
:1059D80046D1154600F1100401F1100353F8106C7C
:1059E800103D44F8106C53F80C6C0F2D44F80C6CF7
:1059F80053F8086C04F1100444F8186C53F8046C5C
:105A080003F1100344F8146CE8D8A2F1100323F052
:105A18000F0302F00F0E1033BEF1030F19440344B5
:105A280021D90E4674461D1F56F8047B043C032CEE
:105A380045F8047FF8D8AEF1040424F003040434D4
:105A48002344214402F0030262B1013B0A4411F8E5
:105A5800014B8A4203F8014FF9D1F0BD0346F3E741
:105A68000346F2E7F0BD7246EEE700BF2DE9F04FBE
:105A7800174683B0002900F08F800D46814607F154
:105A88000B04FFF701FA55F804EC162C2EF0030668
:105A9800A5F108083CD810221446A7423DD89642E2
:105AA80042DAC64B08EB060099688842416800F064
:105AB800D78021F0010303445B68DB074CD51EF057
:105AC800010F00F09D8039464846FEF7EBFE074679
